{
  "contractName": "StonerCats",
  "abi": [
    {
      "inputs": [
        {
          "internalType": "string",
          "name": "baseURI",
          "type": "string"
        }
      ],
      "stateMutability": "nonpayable",
      "type": "constructor"
    },
    {
      "anonymous": false,
      "inputs": [
        {
          "indexed": true,
          "internalType": "address",
          "name": "owner",
          "type": "address"
        },
        {
          "indexed": true,
          "internalType": "address",
          "name": "approved",
          "type": "address"
        },
        {
          "indexed": true,
          "internalType": "uint256",
          "name": "tokenId",
          "type": "uint256"
        }
      ],
      "name": "Approval",
      "type": "event"
    },
    {
      "anonymous": false,
      "inputs": [
        {
          "indexed": true,
          "internalType": "address",
          "name": "owner",
          "type": "address"
        },
        {
          "indexed": true,
          "internalType": "address",
          "name": "operator",
          "type": "address"
        },
        {
          "indexed": false,
          "internalType": "bool",
          "name": "approved",
          "type": "bool"
        }
      ],
      "name": "ApprovalForAll",
      "type": "event"
    },
    {
      "anonymous": false,
      "inputs": [
        {
          "indexed": true,
          "internalType": "address",
          "name": "previousOwner",
          "type": "address"
        },
        {
          "indexed": true,
          "internalType": "address",
          "name": "newOwner",
          "type": "address"
        }
      ],
      "name": "OwnershipTransferred",
      "type": "event"
    },
    {
      "anonymous": false,
      "inputs": [
        {
          "indexed": true,
          "internalType": "address",
          "name": "from",
          "type": "address"
        },
        {
          "indexed": true,
          "internalType": "address",
          "name": "to",
          "type": "address"
        },
        {
          "indexed": true,
          "internalType": "uint256",
          "name": "tokenId",
          "type": "uint256"
        }
      ],
      "name": "Transfer",
      "type": "event"
    },
    {
      "inputs": [],
      "name": "MAX_TOKENS",
      "outputs": [
        {
          "internalType": "uint256",
          "name": "",
          "type": "uint256"
        }
      ],
      "stateMutability": "view",
      "type": "function",
      "constant": true
    },
    {
      "inputs": [],
      "name": "MAX_TOKENS_INIT",
      "outputs": [
        {
          "internalType": "uint256",
          "name": "",
          "type": "uint256"
        }
      ],
      "stateMutability": "view",
      "type": "function",
      "constant": true
    },
    {
      "inputs": [
        {
          "internalType": "address",
          "name": "to",
          "type": "address"
        },
        {
          "internalType": "uint256",
          "name": "tokenId",
          "type": "uint256"
        }
      ],
      "name": "approve",
      "outputs": [],
      "stateMutability": "nonpayable",
      "type": "function"
    },
    {
      "inputs": [
        {
          "internalType": "address",
          "name": "owner",
          "type": "address"
        }
      ],
      "name": "balanceOf",
      "outputs": [
        {
          "internalType": "uint256",
          "name": "",
          "type": "uint256"
        }
      ],
      "stateMutability": "view",
      "type": "function",
      "constant": true
    },
    {
      "inputs": [],
      "name": "baseURI",
      "outputs": [
        {
          "internalType": "string",
          "name": "",
          "type": "string"
        }
      ],
      "stateMutability": "view",
      "type": "function",
      "constant": true
    },
    {
      "inputs": [
        {
          "internalType": "uint256",
          "name": "tokenId",
          "type": "uint256"
        }
      ],
      "name": "getApproved",
      "outputs": [
        {
          "internalType": "address",
          "name": "",
          "type": "address"
        }
      ],
      "stateMutability": "view",
      "type": "function",
      "constant": true
    },
    {
      "inputs": [],
      "name": "hasSaleStarted",
      "outputs": [
        {
          "internalType": "bool",
          "name": "",
          "type": "bool"
        }
      ],
      "stateMutability": "view",
      "type": "function",
      "constant": true
    },
    {
      "inputs": [
        {
          "internalType": "address",
          "name": "owner",
          "type": "address"
        },
        {
          "internalType": "address",
          "name": "operator",
          "type": "address"
        }
      ],
      "name": "isApprovedForAll",
      "outputs": [
        {
          "internalType": "bool",
          "name": "",
          "type": "bool"
        }
      ],
      "stateMutability": "view",
      "type": "function",
      "constant": true
    },
    {
      "inputs": [],
      "name": "name",
      "outputs": [
        {
          "internalType": "string",
          "name": "",
          "type": "string"
        }
      ],
      "stateMutability": "view",
      "type": "function",
      "constant": true
    },
    {
      "inputs": [],
      "name": "owner",
      "outputs": [
        {
          "internalType": "address",
          "name": "",
          "type": "address"
        }
      ],
      "stateMutability": "view",
      "type": "function",
      "constant": true
    },
    {
      "inputs": [
        {
          "internalType": "uint256",
          "name": "tokenId",
          "type": "uint256"
        }
      ],
      "name": "ownerOf",
      "outputs": [
        {
          "internalType": "address",
          "name": "",
          "type": "address"
        }
      ],
      "stateMutability": "view",
      "type": "function",
      "constant": true
    },
    {
      "inputs": [],
      "name": "renounceOwnership",
      "outputs": [],
      "stateMutability": "nonpayable",
      "type": "function"
    },
    {
      "inputs": [
        {
          "internalType": "address",
          "name": "from",
          "type": "address"
        },
        {
          "internalType": "address",
          "name": "to",
          "type": "address"
        },
        {
          "internalType": "uint256",
          "name": "tokenId",
          "type": "uint256"
        }
      ],
      "name": "safeTransferFrom",
      "outputs": [],
      "stateMutability": "nonpayable",
      "type": "function"
    },
    {
      "inputs": [
        {
          "internalType": "address",
          "name": "from",
          "type": "address"
        },
        {
          "internalType": "address",
          "name": "to",
          "type": "address"
        },
        {
          "internalType": "uint256",
          "name": "tokenId",
          "type": "uint256"
        },
        {
          "internalType": "bytes",
          "name": "_data",
          "type": "bytes"
        }
      ],
      "name": "safeTransferFrom",
      "outputs": [],
      "stateMutability": "nonpayable",
      "type": "function"
    },
    {
      "inputs": [
        {
          "internalType": "address",
          "name": "operator",
          "type": "address"
        },
        {
          "internalType": "bool",
          "name": "approved",
          "type": "bool"
        }
      ],
      "name": "setApprovalForAll",
      "outputs": [],
      "stateMutability": "nonpayable",
      "type": "function"
    },
    {
      "inputs": [],
      "name": "symbol",
      "outputs": [
        {
          "internalType": "string",
          "name": "",
          "type": "string"
        }
      ],
      "stateMutability": "view",
      "type": "function",
      "constant": true
    },
    {
      "inputs": [
        {
          "internalType": "uint256",
          "name": "index",
          "type": "uint256"
        }
      ],
      "name": "tokenByIndex",
      "outputs": [
        {
          "internalType": "uint256",
          "name": "",
          "type": "uint256"
        }
      ],
      "stateMutability": "view",
      "type": "function",
      "constant": true
    },
    {
      "inputs": [
        {
          "internalType": "address",
          "name": "owner",
          "type": "address"
        },
        {
          "internalType": "uint256",
          "name": "index",
          "type": "uint256"
        }
      ],
      "name": "tokenOfOwnerByIndex",
      "outputs": [
        {
          "internalType": "uint256",
          "name": "",
          "type": "uint256"
        }
      ],
      "stateMutability": "view",
      "type": "function",
      "constant": true
    },
    {
      "inputs": [
        {
          "internalType": "uint256",
          "name": "tokenId",
          "type": "uint256"
        }
      ],
      "name": "tokenURI",
      "outputs": [
        {
          "internalType": "string",
          "name": "",
          "type": "string"
        }
      ],
      "stateMutability": "view",
      "type": "function",
      "constant": true
    },
    {
      "inputs": [],
      "name": "totalSupply",
      "outputs": [
        {
          "internalType": "uint256",
          "name": "",
          "type": "uint256"
        }
      ],
      "stateMutability": "view",
      "type": "function",
      "constant": true
    },
    {
      "inputs": [
        {
          "internalType": "address",
          "name": "from",
          "type": "address"
        },
        {
          "internalType": "address",
          "name": "to",
          "type": "address"
        },
        {
          "internalType": "uint256",
          "name": "tokenId",
          "type": "uint256"
        }
      ],
      "name": "transferFrom",
      "outputs": [],
      "stateMutability": "nonpayable",
      "type": "function"
    },
    {
      "inputs": [
        {
          "internalType": "address",
          "name": "newOwner",
          "type": "address"
        }
      ],
      "name": "transferOwnership",
      "outputs": [],
      "stateMutability": "nonpayable",
      "type": "function"
    },
    {
      "inputs": [
        {
          "internalType": "address",
          "name": "_owner",
          "type": "address"
        }
      ],
      "name": "tokensOfOwner",
      "outputs": [
        {
          "internalType": "uint256[]",
          "name": "",
          "type": "uint256[]"
        }
      ],
      "stateMutability": "view",
      "type": "function",
      "constant": true
    },
    {
      "inputs": [],
      "name": "calculatePrice",
      "outputs": [
        {
          "internalType": "uint256",
          "name": "",
          "type": "uint256"
        }
      ],
      "stateMutability": "view",
      "type": "function",
      "constant": true
    },
    {
      "inputs": [
        {
          "internalType": "uint256",
          "name": "numTokens",
          "type": "uint256"
        }
      ],
      "name": "mewnt",
      "outputs": [],
      "stateMutability": "payable",
      "type": "function",
      "payable": true
    },
    {
      "inputs": [
        {
          "internalType": "uint256",
          "name": "numTokens",
          "type": "uint256"
        }
      ],
      "name": "reserveGiveaway",
      "outputs": [],
      "stateMutability": "nonpayable",
      "type": "function"
    },
    {
      "inputs": [
        {
          "internalType": "bytes4",
          "name": "interfaceId",
          "type": "bytes4"
        }
      ],
      "name": "supportsInterface",
      "outputs": [
        {
          "internalType": "bool",
          "name": "",
          "type": "bool"
        }
      ],
      "stateMutability": "view",
      "type": "function",
      "constant": true
    },
    {
      "inputs": [
        {
          "internalType": "uint256",
          "name": "numTokens",
          "type": "uint256"
        }
      ],
      "name": "addCharacter",
      "outputs": [],
      "stateMutability": "nonpayable",
      "type": "function"
    },
    {
      "inputs": [],
      "name": "getCurrentSupplyCap",
      "outputs": [
        {
          "internalType": "uint256",
          "name": "",
          "type": "uint256"
        }
      ],
      "stateMutability": "view",
      "type": "function",
      "constant": true
    },
    {
      "inputs": [
        {
          "internalType": "string",
          "name": "baseURI",
          "type": "string"
        }
      ],
      "name": "setBaseURI",
      "outputs": [],
      "stateMutability": "nonpayable",
      "type": "function"
    },
    {
      "inputs": [],
      "name": "startSale",
      "outputs": [],
      "stateMutability": "nonpayable",
      "type": "function"
    },
    {
      "inputs": [],
      "name": "pauseSale",
      "outputs": [],
      "stateMutability": "nonpayable",
      "type": "function"
    },
    {
      "inputs": [],
      "name": "withdrawAll",
      "outputs": [],
      "stateMutability": "payable",
      "type": "function",
      "payable": true
    }
  ],
  "bytecode": "0x60806040526128b4600c55600d805460ff191690556000600e553480156200002657600080fd5b5060405162003a0238038062003a02833981810160405260208110156200004c57600080fd5b81019080805160405193929190846401000000008211156200006d57600080fd5b9083019060208201858111156200008357600080fd5b82516401000000008111828201881017156200009e57600080fd5b82525081516020918201929091019080838360005b83811015620000cd578181015183820152602001620000b3565b50505050905090810190601f168015620000fb5780820380516001836020036101000a031916815260200191505b5060408181018152600b82526a53746f6e6572204361747360a81b602080840191909152815180830190925260058252642a27a5a2b760d91b9082015290935091506200015190506301ffc9a760e01b62000227565b8151620001669060069060208501906200035f565b5080516200017c9060079060208401906200035f565b506200018f6380ac58cd60e01b62000227565b620001a1635b5e139f60e01b62000227565b620001b363780e9d6360e01b62000227565b5060009050620001c2620002ac565b600a80546001600160a01b0319166001600160a01b038316908117909155604051919250906000907f8be0079c531659141344cd1fd0a4f28419497f9722a3daafe3b4186f6b6457e0908290a3506001600b556200022081620002b0565b506200040b565b6001600160e01b0319808216141562000287576040805162461bcd60e51b815260206004820152601c60248201527f4552433136353a20696e76616c696420696e7465726661636520696400000000604482015290519081900360640190fd5b6001600160e01b0319166000908152602081905260409020805460ff19166001179055565b3390565b620002ba620002ac565b6001600160a01b0316620002cd62000337565b6001600160a01b03161462000329576040805162461bcd60e51b815260206004820181905260248201527f4f776e61626c653a2063616c6c6572206973206e6f7420746865206f776e6572604482015290519081900360640190fd5b620003348162000346565b50565b600a546001600160a01b031690565b80516200035b9060099060208401906200035f565b5050565b828054600181600116156101000203166002900490600052602060002090601f016020900481019282620003975760008555620003e2565b82601f10620003b257805160ff1916838001178555620003e2565b82800160010185558215620003e2579182015b82811115620003e2578251825591602001919060010190620003c5565b50620003f0929150620003f4565b5090565b5b80821115620003f05760008155600101620003f5565b6135e7806200041b6000396000f3fe6080604052600436106101fe5760003560e01c806370a082311161011d578063b66a0e5d116100b0578063cec3dc591161007f578063e985e9c511610064578063e985e9c514610909578063f2fde38b14610951578063f47c84c514610991576101fe565b8063cec3dc59146108d7578063d348b409146108f4576101fe565b8063b66a0e5d146107a3578063b88d4fde146107b8578063c74ee8fb14610898578063c87b56dd146108ad576101fe565b80638da5cb5b116100ec5780638da5cb5b1461070757806395d89b411461071c578063a22cb46514610731578063a40f1aa514610779576101fe565b806370a082311461061a578063715018a61461065a5780638462151c1461066f578063853828b6146106ff576101fe565b806323b872dd1161019557806355367ba91161016457806355367ba91461051357806355f804b3146105285780636352211e146105db5780636c0360eb14610605576101fe565b806323b872dd146104035780632f745c591461045357806342842e0e146104995780634f6ccce7146104e9576101fe565b8063095ea7b3116101d1578063095ea7b31461036757806310ac22bf146103af57806318160ddd146103d95780631c8b232d146103ee576101fe565b806301ffc9a714610203578063046e8b471461026357806306fdde031461028a578063081812fc14610314575b600080fd5b34801561020f57600080fd5b5061024f6004803603602081101561022657600080fd5b50357fffffffff00000000000000000000000000000000000000000000000000000000166109a6565b604080519115158252519081900360200190f35b34801561026f57600080fd5b506102786109b9565b60408051918252519081900360200190f35b34801561029657600080fd5b5061029f6109bf565b6040805160208082528351818301528351919283929083019185019080838360005b838110156102d95781810151838201526020016102c1565b50505050905090810190601f1680156103065780820380516001836020036101000a031916815260200191505b509250505060405180910390f35b34801561032057600080fd5b5061033e6004803603602081101561033757600080fd5b5035610a55565b6040805173ffffffffffffffffffffffffffffffffffffffff9092168252519081900360200190f35b34801561037357600080fd5b506103ad6004803603604081101561038a57600080fd5b5073ffffffffffffffffffffffffffffffffffffffff8135169060200135610ac4565b005b3480156103bb57600080fd5b506103ad600480360360208110156103d257600080fd5b5035610bd3565b3480156103e557600080fd5b50610278610cb1565b3480156103fa57600080fd5b5061024f610cc2565b34801561040f57600080fd5b506103ad6004803603606081101561042657600080fd5b5073ffffffffffffffffffffffffffffffffffffffff813581169160208101359091169060400135610ccb565b34801561045f57600080fd5b506102786004803603604081101561047657600080fd5b5073ffffffffffffffffffffffffffffffffffffffff8135169060200135610d22565b3480156104a557600080fd5b506103ad600480360360608110156104bc57600080fd5b5073ffffffffffffffffffffffffffffffffffffffff813581169160208101359091169060400135610d5a565b3480156104f557600080fd5b506102786004803603602081101561050c57600080fd5b5035610d75565b34801561051f57600080fd5b506103ad610d8b565b34801561053457600080fd5b506103ad6004803603602081101561054b57600080fd5b81019060208101813564010000000081111561056657600080fd5b82018360208201111561057857600080fd5b8035906020019184600183028401116401000000008311171561059a57600080fd5b91908080601f016020809104026020016040519081016040528093929190818152602001838380828437600092019190915250929550610e43945050505050565b3480156105e757600080fd5b5061033e600480360360208110156105fe57600080fd5b5035610edd565b34801561061157600080fd5b5061029f610f05565b34801561062657600080fd5b506102786004803603602081101561063d57600080fd5b503573ffffffffffffffffffffffffffffffffffffffff16610f66565b34801561066657600080fd5b506103ad610fe8565b34801561067b57600080fd5b506106af6004803603602081101561069257600080fd5b503573ffffffffffffffffffffffffffffffffffffffff166110e5565b60408051602080825283518183015283519192839290830191858101910280838360005b838110156106eb5781810151838201526020016106d3565b505050509050019250505060405180910390f35b6103ad611193565b34801561071357600080fd5b5061033e611247565b34801561072857600080fd5b5061029f611263565b34801561073d57600080fd5b506103ad6004803603604081101561075457600080fd5b5073ffffffffffffffffffffffffffffffffffffffff813516906020013515156112c4565b34801561078557600080fd5b506103ad6004803603602081101561079c57600080fd5b503561141b565b3480156107af57600080fd5b506103ad6115f5565b3480156107c457600080fd5b506103ad600480360360808110156107db57600080fd5b73ffffffffffffffffffffffffffffffffffffffff82358116926020810135909116916040820135919081019060808101606082013564010000000081111561082357600080fd5b82018360208201111561083557600080fd5b8035906020019184600183028401116401000000008311171561085757600080fd5b91908080601f0160208091040260200160405190810160405280939291908181526020018383808284376000920191909152509295506116b0945050505050565b3480156108a457600080fd5b5061027861170e565b3480156108b957600080fd5b5061029f600480360360208110156108d057600080fd5b5035611714565b6103ad600480360360208110156108ed57600080fd5b5035611a0d565b34801561090057600080fd5b50610278611bf1565b34801561091557600080fd5b5061024f6004803603604081101561092c57600080fd5b5073ffffffffffffffffffffffffffffffffffffffff81358116916020013516611cba565b34801561095d57600080fd5b506103ad6004803603602081101561097457600080fd5b503573ffffffffffffffffffffffffffffffffffffffff16611cf5565b34801561099d57600080fd5b50610278611e63565b60006109b182611e69565b90505b919050565b600c5490565b60068054604080516020601f6002600019610100600188161502019095169490940493840181900481028201810190925282815260609390929091830182828015610a4b5780601f10610a2057610100808354040283529160200191610a4b565b820191906000526020600020905b815481529060010190602001808311610a2e57829003601f168201915b5050505050905090565b6000610a6082611ea0565b610a9b5760405162461bcd60e51b815260040180806020018281038252602c815260200180613489602c913960400191505060405180910390fd5b5060009081526004602052604090205473ffffffffffffffffffffffffffffffffffffffff1690565b6000610acf82610edd565b90508073ffffffffffffffffffffffffffffffffffffffff168373ffffffffffffffffffffffffffffffffffffffff161415610b3c5760405162461bcd60e51b81526004018080602001828103825260218152602001806135396021913960400191505060405180910390fd5b8073ffffffffffffffffffffffffffffffffffffffff16610b5b611ead565b73ffffffffffffffffffffffffffffffffffffffff161480610b895750610b8981610b84611ead565b611cba565b610bc45760405162461bcd60e51b81526004018080602001828103825260388152602001806133986038913960400191505060405180910390fd5b610bce8383611eb1565b505050565b610bdb611ead565b73ffffffffffffffffffffffffffffffffffffffff16610bf9611247565b73ffffffffffffffffffffffffffffffffffffffff1614610c61576040805162461bcd60e51b815260206004820181905260248201527f4f776e61626c653a2063616c6c6572206973206e6f7420746865206f776e6572604482015290519081900360640190fd5b61346c81600c54011115610ca65760405162461bcd60e51b81526004018080602001828103825260358152602001806133056035913960400191505060405180910390fd5b600c80549091019055565b6000610cbd6002611f51565b905090565b600d5460ff1681565b610cdc610cd6611ead565b82611f5c565b610d175760405162461bcd60e51b81526004018080602001828103825260318152602001806135816031913960400191505060405180910390fd5b610bce838383612034565b73ffffffffffffffffffffffffffffffffffffffff82166000908152600160205260408120610d5190836121db565b90505b92915050565b610bce838383604051806020016040528060008152506116b0565b600080610d836002846121e7565b509392505050565b610d93611ead565b73ffffffffffffffffffffffffffffffffffffffff16610db1611247565b73ffffffffffffffffffffffffffffffffffffffff1614610e19576040805162461bcd60e51b815260206004820181905260248201527f4f776e61626c653a2063616c6c6572206973206e6f7420746865206f776e6572604482015290519081900360640190fd5b600d80547fffffffffffffffffffffffffffffffffffffffffffffffffffffffffffffff00169055565b610e4b611ead565b73ffffffffffffffffffffffffffffffffffffffff16610e69611247565b73ffffffffffffffffffffffffffffffffffffffff1614610ed1576040805162461bcd60e51b815260206004820181905260248201527f4f776e61626c653a2063616c6c6572206973206e6f7420746865206f776e6572604482015290519081900360640190fd5b610eda81612203565b50565b60006109b1826040518060600160405280602981526020016133fa602991396002919061221a565b60098054604080516020601f6002600019610100600188161502019095169490940493840181900481028201810190925282815260609390929091830182828015610a4b5780601f10610a2057610100808354040283529160200191610a4b565b600073ffffffffffffffffffffffffffffffffffffffff8216610fba5760405162461bcd60e51b815260040180806020018281038252602a8152602001806133d0602a913960400191505060405180910390fd5b73ffffffffffffffffffffffffffffffffffffffff821660009081526001602052604090206109b190611f51565b610ff0611ead565b73ffffffffffffffffffffffffffffffffffffffff1661100e611247565b73ffffffffffffffffffffffffffffffffffffffff1614611076576040805162461bcd60e51b815260206004820181905260248201527f4f776e61626c653a2063616c6c6572206973206e6f7420746865206f776e6572604482015290519081900360640190fd5b600a5460405160009173ffffffffffffffffffffffffffffffffffffffff16907f8be0079c531659141344cd1fd0a4f28419497f9722a3daafe3b4186f6b6457e0908390a3600a80547fffffffffffffffffffffffff0000000000000000000000000000000000000000169055565b606060006110f283610f66565b90508061110f5750506040805160008152602081019091526109b4565b60008167ffffffffffffffff8111801561112857600080fd5b50604051908082528060200260200182016040528015611152578160200160208202803683370190505b50905060005b828110156111895761116a8582610d22565b82828151811061117657fe5b6020908102919091010152600101611158565b5091506109b49050565b61119b611ead565b73ffffffffffffffffffffffffffffffffffffffff166111b9611247565b73ffffffffffffffffffffffffffffffffffffffff1614611221576040805162461bcd60e51b815260206004820181905260248201527f4f776e61626c653a2063616c6c6572206973206e6f7420746865206f776e6572604482015290519081900360640190fd5b60405133904780156108fc02916000818181858888f1935050505061124557600080fd5b565b600a5473ffffffffffffffffffffffffffffffffffffffff1690565b60078054604080516020601f6002600019610100600188161502019095169490940493840181900481028201810190925282815260609390929091830182828015610a4b5780601f10610a2057610100808354040283529160200191610a4b565b6112cc611ead565b73ffffffffffffffffffffffffffffffffffffffff168273ffffffffffffffffffffffffffffffffffffffff16141561134c576040805162461bcd60e51b815260206004820152601960248201527f4552433732313a20617070726f766520746f2063616c6c657200000000000000604482015290519081900360640190fd5b8060056000611359611ead565b73ffffffffffffffffffffffffffffffffffffffff90811682526020808301939093526040918201600090812091871680825291909352912080547fffffffffffffffffffffffffffffffffffffffffffffffffffffffffffffff0016921515929092179091556113c8611ead565b73ffffffffffffffffffffffffffffffffffffffff167f17307eab39ab6107e8899845ad3d59bd9653f200f220920489ca2b5937696c318360405180821515815260200191505060405180910390a35050565b611423611ead565b73ffffffffffffffffffffffffffffffffffffffff16611441611247565b73ffffffffffffffffffffffffffffffffffffffff16146114a9576040805162461bcd60e51b815260206004820181905260248201527f4f776e61626c653a2063616c6c6572206973206e6f7420746865206f776e6572604482015290519081900360640190fd5b60006114b3610cb1565b905060646114c9836114c3610cb1565b90612231565b111561151c576040805162461bcd60e51b815260206004820152601860248201527f457863656564656420676976656177617920737570706c790000000000000000604482015290519081900360640190fd5b600d5460ff1615611574576040805162461bcd60e51b815260206004820152601860248201527f53616c652068617320616c726561647920737461727465640000000000000000604482015290519081900360640190fd5b60005b82811015610bce57600e8054600101905561159b611593611247565b82840161228b565b6115ed8282016115e86115ad826122a5565b6040518060400160405280600b81526020017f2f696e6465782e6a736f6e0000000000000000000000000000000000000000008152506123b1565b6123ed565b600101611577565b6115fd611ead565b73ffffffffffffffffffffffffffffffffffffffff1661161b611247565b73ffffffffffffffffffffffffffffffffffffffff1614611683576040805162461bcd60e51b815260206004820181905260248201527f4f776e61626c653a2063616c6c6572206973206e6f7420746865206f776e6572604482015290519081900360640190fd5b600d80547fffffffffffffffffffffffffffffffffffffffffffffffffffffffffffffff00166001179055565b6116c16116bb611ead565b83611f5c565b6116fc5760405162461bcd60e51b81526004018080602001828103825260318152602001806135816031913960400191505060405180910390fd5b61170884848484612450565b50505050565b6128b481565b606061171f82611ea0565b61175a5760405162461bcd60e51b815260040180806020018281038252602f81526020018061350a602f913960400191505060405180910390fd5b60008281526008602090815260408083208054825160026001831615610100026000190190921691909104601f8101859004850282018501909352828152929091908301828280156117ed5780601f106117c2576101008083540402835291602001916117ed565b820191906000526020600020905b8154815290600101906020018083116117d057829003601f168201915b5050505050905060006117fe610f05565b9050805160001415611812575090506109b4565b81511561190f5780826040516020018083805190602001908083835b6020831061186b57805182527fffffffffffffffffffffffffffffffffffffffffffffffffffffffffffffffe0909201916020918201910161182e565b51815160209384036101000a600019018019909216911617905285519190930192850191508083835b602083106118d157805182527fffffffffffffffffffffffffffffffffffffffffffffffffffffffffffffffe09092019160209182019101611894565b6001836020036101000a03801982511681845116808217855250505050505090500192505050604051602081830303815290604052925050506109b4565b80611919856124a2565b6040516020018083805190602001908083835b6020831061196957805182527fffffffffffffffffffffffffffffffffffffffffffffffffffffffffffffffe0909201916020918201910161192c565b51815160209384036101000a600019018019909216911617905285519190930192850191508083835b602083106119cf57805182527fffffffffffffffffffffffffffffffffffffffffffffffffffffffffffffffe09092019160209182019101611992565b6001836020036101000a0380198251168184511680821785525050505050509050019250505060405160208183030381529060405292505050919050565b6002600b541415611a65576040805162461bcd60e51b815260206004820152601f60248201527f5265656e7472616e637947756172643a207265656e7472616e742063616c6c00604482015290519081900360640190fd5b6002600b55600c54611a75610cb1565b10611ab15760405162461bcd60e51b81526004018080602001828103825260328152602001806133666032913960400191505060405180910390fd5b600081118015611ac2575060148111155b611afd5760405162461bcd60e51b815260040180806020018281038252602781526020018061355a6027913960400191505060405180910390fd5b600c54611b0c826114c3610cb1565b1115611b5f576040805162461bcd60e51b815260206004820152601760248201527f4578636565647320435552525f535550504c595f434150000000000000000000604482015290519081900360640190fd5b611b7181611b6b611bf1565b906125a8565b341015611baf5760405162461bcd60e51b81526004018080602001828103825260238152602001806134236023913960400191505060405180910390fd5b60005b81811015611be857600e805460018101909155611bcf338261228b565b611bdf816115e86115ad846122a5565b50600101611bb2565b50506001600b55565b600d5460009060ff161515600114611c50576040805162461bcd60e51b815260206004820152601360248201527f53616c65206861736e2774207374617274656400000000000000000000000000604482015290519081900360640190fd5b600c54611c5b610cb1565b10611cad576040805162461bcd60e51b815260206004820152601460248201527f5765277265206174206d617820737570706c7921000000000000000000000000604482015290519081900360640190fd5b506704db73254763000090565b73ffffffffffffffffffffffffffffffffffffffff918216600090815260056020908152604080832093909416825291909152205460ff1690565b611cfd611ead565b73ffffffffffffffffffffffffffffffffffffffff16611d1b611247565b73ffffffffffffffffffffffffffffffffffffffff1614611d83576040805162461bcd60e51b815260206004820181905260248201527f4f776e61626c653a2063616c6c6572206973206e6f7420746865206f776e6572604482015290519081900360640190fd5b73ffffffffffffffffffffffffffffffffffffffff8116611dd55760405162461bcd60e51b81526004018080602001828103825260268152602001806132bb6026913960400191505060405180910390fd5b600a5460405173ffffffffffffffffffffffffffffffffffffffff8084169216907f8be0079c531659141344cd1fd0a4f28419497f9722a3daafe3b4186f6b6457e090600090a3600a80547fffffffffffffffffffffffff00000000000000000000000000000000000000001673ffffffffffffffffffffffffffffffffffffffff92909216919091179055565b61346c81565b7fffffffff000000000000000000000000000000000000000000000000000000001660009081526020819052604090205460ff1690565b60006109b1600283612601565b3390565b600081815260046020526040902080547fffffffffffffffffffffffff00000000000000000000000000000000000000001673ffffffffffffffffffffffffffffffffffffffff84169081179091558190611f0b82610edd565b73ffffffffffffffffffffffffffffffffffffffff167f8c5be1e5ebec7d5bd14f71427d1e84f3dd0314c0f7b2291e5b200ac8c7c3b92560405160405180910390a45050565b60006109b18261260d565b6000611f6782611ea0565b611fa25760405162461bcd60e51b815260040180806020018281038252602c81526020018061333a602c913960400191505060405180910390fd5b6000611fad83610edd565b90508073ffffffffffffffffffffffffffffffffffffffff168473ffffffffffffffffffffffffffffffffffffffff16148061201c57508373ffffffffffffffffffffffffffffffffffffffff1661200484610a55565b73ffffffffffffffffffffffffffffffffffffffff16145b8061202c575061202c8185611cba565b949350505050565b8273ffffffffffffffffffffffffffffffffffffffff1661205482610edd565b73ffffffffffffffffffffffffffffffffffffffff16146120a65760405162461bcd60e51b81526004018080602001828103825260298152602001806134e16029913960400191505060405180910390fd5b73ffffffffffffffffffffffffffffffffffffffff82166120f85760405162461bcd60e51b81526004018080602001828103825260248152602001806132e16024913960400191505060405180910390fd5b612103838383610bce565b61210e600082611eb1565b73ffffffffffffffffffffffffffffffffffffffff8316600090815260016020526040902061213d9082612611565b5073ffffffffffffffffffffffffffffffffffffffff8216600090815260016020526040902061216d908261261d565b5061217a60028284612629565b50808273ffffffffffffffffffffffffffffffffffffffff168473ffffffffffffffffffffffffffffffffffffffff167fddf252ad1be2c89b69c2b068fc378daa952ba7f163c4a11628f55a4df523b3ef60405160405180910390a4505050565b6000610d51838361264c565b60008080806121f686866126b0565b9097909650945050505050565b80516122169060099060208401906131c5565b5050565b600061222784848461272b565b90505b9392505050565b600082820183811015610d51576040805162461bcd60e51b815260206004820152601b60248201527f536166654d6174683a206164646974696f6e206f766572666c6f770000000000604482015290519081900360640190fd5b6122168282604051806020016040528060008152506127f5565b6060816122e6575060408051808201909152600181527f300000000000000000000000000000000000000000000000000000000000000060208201526109b4565b8160005b81156122fe57600101600a820491506122ea565b60008167ffffffffffffffff8111801561231757600080fd5b506040519080825280601f01601f191660200182016040528015612342576020820181803683370190505b50905060001982015b85156123a857600a860660300160f81b8282806001900393508151811061236e57fe5b60200101907effffffffffffffffffffffffffffffffffffffffffffffffffffffffffffff1916908160001a905350600a8604955061234b565b50949350505050565b6060610d518383604051806020016040528060008152506040518060200160405280600081525060405180602001604052806000815250612847565b6123f682611ea0565b6124315760405162461bcd60e51b815260040180806020018281038252602c8152602001806134b5602c913960400191505060405180910390fd5b60008281526008602090815260409091208251610bce928401906131c5565b61245b848484612034565b61246784848484612ae5565b6117085760405162461bcd60e51b81526004018080602001828103825260328152602001806132896032913960400191505060405180910390fd5b6060816124e3575060408051808201909152600181527f300000000000000000000000000000000000000000000000000000000000000060208201526109b4565b8160005b81156124fb57600101600a820491506124e7565b60008167ffffffffffffffff8111801561251457600080fd5b506040519080825280601f01601f19166020018201604052801561253f576020820181803683370190505b50859350905060001982015b83156123a857600a840660300160f81b8282806001900393508151811061256e57fe5b60200101907effffffffffffffffffffffffffffffffffffffffffffffffffffffffffffff1916908160001a905350600a8404935061254b565b6000826125b757506000610d54565b828202828482816125c457fe5b0414610d515760405162461bcd60e51b81526004018080602001828103825260218152602001806134686021913960400191505060405180910390fd5b6000610d518383612cf5565b5490565b6000610d518383612d0d565b6000610d518383612dd3565b6000612227848473ffffffffffffffffffffffffffffffffffffffff8516612e1d565b8154600090821061268e5760405162461bcd60e51b81526004018080602001828103825260228152602001806132676022913960400191505060405180910390fd5b82600001828154811061269d57fe5b9060005260206000200154905092915050565b8154600090819083106126f45760405162461bcd60e51b81526004018080602001828103825260228152602001806134466022913960400191505060405180910390fd5b600084600001848154811061270557fe5b906000526020600020906002020190508060000154816001015492509250509250929050565b600082815260018401602052604081205482816127c65760405162461bcd60e51b81526004018080602001828103825283818151815260200191508051906020019080838360005b8381101561278b578181015183820152602001612773565b50505050905090810190601f1680156127b85780820380516001836020036101000a031916815260200191505b509250505060405180910390fd5b508460000160018203815481106127d957fe5b9060005260206000209060020201600101549150509392505050565b6127ff8383612eb4565b61280c6000848484612ae5565b610bce5760405162461bcd60e51b81526004018080602001828103825260328152602001806132896032913960400191505060405180910390fd5b805182518451865188516060948a948a948a948a948a94600094919092019092019091010167ffffffffffffffff8111801561288257600080fd5b506040519080825280601f01601f1916602001820160405280156128ad576020820181803683370190505b509050806000805b885181101561291e578881815181106128ca57fe5b602001015160f81c60f81b8383806001019450815181106128e757fe5b60200101907effffffffffffffffffffffffffffffffffffffffffffffffffffffffffffff1916908160001a9053506001016128b5565b5060005b875181101561298b5787818151811061293757fe5b602001015160f81c60f81b83838060010194508151811061295457fe5b60200101907effffffffffffffffffffffffffffffffffffffffffffffffffffffffffffff1916908160001a905350600101612922565b5060005b86518110156129f8578681815181106129a457fe5b602001015160f81c60f81b8383806001019450815181106129c157fe5b60200101907effffffffffffffffffffffffffffffffffffffffffffffffffffffffffffff1916908160001a90535060010161298f565b5060005b8551811015612a6557858181518110612a1157fe5b602001015160f81c60f81b838380600101945081518110612a2e57fe5b60200101907effffffffffffffffffffffffffffffffffffffffffffffffffffffffffffff1916908160001a9053506001016129fc565b5060005b8451811015612ad257848181518110612a7e57fe5b602001015160f81c60f81b838380600101945081518110612a9b57fe5b60200101907effffffffffffffffffffffffffffffffffffffffffffffffffffffffffffff1916908160001a905350600101612a69565b50909d9c50505050505050505050505050565b6000612b068473ffffffffffffffffffffffffffffffffffffffff16613009565b612b125750600161202c565b6000612c8a7f150b7a0200000000000000000000000000000000000000000000000000000000612b40611ead565b888787604051602401808573ffffffffffffffffffffffffffffffffffffffff1681526020018473ffffffffffffffffffffffffffffffffffffffff16815260200183815260200180602001828103825283818151815260200191508051906020019080838360005b83811015612bc1578181015183820152602001612ba9565b50505050905090810190601f168015612bee5780820380516001836020036101000a031916815260200191505b5095505050505050604051602081830303815290604052907bffffffffffffffffffffffffffffffffffffffffffffffffffffffff19166020820180517bffffffffffffffffffffffffffffffffffffffffffffffffffffffff83818316178352505050506040518060600160405280603281526020016132896032913973ffffffffffffffffffffffffffffffffffffffff8816919061300f565b90506000818060200190516020811015612ca357600080fd5b50517fffffffff00000000000000000000000000000000000000000000000000000000167f150b7a02000000000000000000000000000000000000000000000000000000001492505050949350505050565b60009081526001919091016020526040902054151590565b60008181526001830160205260408120548015612dc95783546000198083019190810190600090879083908110612d4057fe5b9060005260206000200154905080876000018481548110612d5d57fe5b600091825260208083209091019290925582815260018981019092526040902090840190558654879080612d8d57fe5b60019003818190600052602060002001600090559055866001016000878152602001908152602001600020600090556001945050505050610d54565b6000915050610d54565b6000612ddf8383612cf5565b612e1557508154600181810184556000848152602080822090930184905584548482528286019093526040902091909155610d54565b506000610d54565b600082815260018401602052604081205480612e8257505060408051808201825283815260208082018481528654600181810189556000898152848120955160029093029095019182559151908201558654868452818801909252929091205561222a565b82856000016001830381548110612e9557fe5b906000526020600020906002020160010181905550600091505061222a565b73ffffffffffffffffffffffffffffffffffffffff8216612f1c576040805162461bcd60e51b815260206004820181905260248201527f4552433732313a206d696e7420746f20746865207a65726f2061646472657373604482015290519081900360640190fd5b612f2581611ea0565b15612f77576040805162461bcd60e51b815260206004820152601c60248201527f4552433732313a20746f6b656e20616c7265616479206d696e74656400000000604482015290519081900360640190fd5b612f8360008383610bce565b73ffffffffffffffffffffffffffffffffffffffff82166000908152600160205260409020612fb2908261261d565b50612fbf60028284612629565b50604051819073ffffffffffffffffffffffffffffffffffffffff8416906000907fddf252ad1be2c89b69c2b068fc378daa952ba7f163c4a11628f55a4df523b3ef908290a45050565b3b151590565b606061222784846000858561302385613009565b613074576040805162461bcd60e51b815260206004820152601d60248201527f416464726573733a2063616c6c20746f206e6f6e2d636f6e7472616374000000604482015290519081900360640190fd5b6000808673ffffffffffffffffffffffffffffffffffffffff1685876040518082805190602001908083835b602083106130dd57805182527fffffffffffffffffffffffffffffffffffffffffffffffffffffffffffffffe090920191602091820191016130a0565b6001836020036101000a03801982511681845116808217855250505050505090500191505060006040518083038185875af1925050503d806000811461313f576040519150601f19603f3d011682016040523d82523d6000602084013e613144565b606091505b509150915061315482828661315f565b979650505050505050565b6060831561316e57508161222a565b82511561317e5782518084602001fd5b60405162461bcd60e51b815260206004820181815284516024840152845185939192839260440191908501908083836000831561278b578181015183820152602001612773565b828054600181600116156101000203166002900490600052602060002090601f0160209004810192826131fb5760008555613241565b82601f1061321457805160ff1916838001178555613241565b82800160010185558215613241579182015b82811115613241578251825591602001919060010190613226565b5061324d929150613251565b5090565b5b8082111561324d576000815560010161325256fe456e756d657261626c655365743a20696e646578206f7574206f6620626f756e64734552433732313a207472616e7366657220746f206e6f6e20455243373231526563656976657220696d706c656d656e7465724f776e61626c653a206e6577206f776e657220697320746865207a65726f20616464726573734552433732313a207472616e7366657220746f20746865207a65726f206164647265737343616e277420616464206e657720636861726163746572204e4654732e20576f756c6420657863656564204d41585f544f4b454e534552433732313a206f70657261746f7220717565727920666f72206e6f6e6578697374656e7420746f6b656e576520617265206174206d617820737570706c792e204275726e20736f6d6520696e2061207061706572206261672e2e2e3f4552433732313a20617070726f76652063616c6c6572206973206e6f74206f776e6572206e6f7220617070726f76656420666f7220616c6c4552433732313a2062616c616e636520717565727920666f7220746865207a65726f20616464726573734552433732313a206f776e657220717565727920666f72206e6f6e6578697374656e7420746f6b656e45746865722076616c75652073656e742069732062656c6f7720746865207072696365456e756d657261626c654d61703a20696e646578206f7574206f6620626f756e6473536166654d6174683a206d756c7469706c69636174696f6e206f766572666c6f774552433732313a20617070726f76656420717565727920666f72206e6f6e6578697374656e7420746f6b656e4552433732314d657461646174613a2055524920736574206f66206e6f6e6578697374656e7420746f6b656e4552433732313a207472616e73666572206f6620746f6b656e2074686174206973206e6f74206f776e4552433732314d657461646174613a2055524920717565727920666f72206e6f6e6578697374656e7420746f6b656e4552433732313a20617070726f76616c20746f2063757272656e74206f776e6572596f752063616e2064726f70206d696e696d756d20312c206d6178696d756d203230204e4654734552433732313a207472616e736665722063616c6c6572206973206e6f74206f776e6572206e6f7220617070726f766564a2646970667358221220ea89bc0dc777d7f121439616329788c48b57258df149ac6ab696101aa865231664736f6c63430007060033",
  "immutableReferences": {},
  "source": "// SPDX-License-Identifier: MIT\n\npragma solidity ^0.7.0;\n\n// @title: Stoner Cats\n// @author: bighead.club\n\n////////////////////////////////////////////////////////////////////////\n//                                                                    //\n//    __     =^..^=                                                   //\n//  =^._.^=   (u u).                    =^..^=                        //\n//  (_)--\\_)  (   \\     =^..^=___. ,--. //--//(,------.,------,       //\n//  /    _ / |'--b..b__)( u u).-.\\|   \\ |  |) |  .---'|   ---`'       //\n//  \\_..`--. `--.  .--'( _) | |  ||  . '|  |d |  '--. |  |_.' |       //\n//  .-._)   \\   |  |    \\|  | |  ||  |\\    |  |  .--' |  .   .'       //\n//  \\       /   |  |     '  '-'  '|  | \\   |  |  `---.|  |\\  \\        //\n//   `-----'    `--'      `-----' `--'  `--'  `------'`--' '--'       //\n//                                                                    //\n//                                                    ((((            //\n//   ,-----.  ,----.   _=^..^= _______        .,,  ((((((  .//.     //\n//  /  .--./ |  /`. \\ |   uu...u_)  ___/       /(((( `(((/. (((((     //\n//  | =^..^= '-'|_.' |`--.  .--'\\_..`--.       (((((. ..,.  /(((/     //\n//  |  |u u )(|  .-. |   |  |   .-._)   \\     ,,```. ((((((./(' /(\\   //\n//  '  '--'\\ |  | |  |   |  |   \\       /    ((((,, .((/((((. '((((   //\n//   `-----' `--' `--'   `--'    `-----'     .((/,..(((((((((( *((,   //\n//                                                 (////((((((        //\n//                                                  ((//((/)          //\n//                                                                    //\n////////////////////////////////////////////////////////////////////////\n\n// OpenZeppelin\nimport \"./token/ERC721/ERC721.sol\";\nimport \"./access/Ownable.sol\";\nimport \"./security/ReentrancyGuard.sol\";\nimport \"./introspection/ERC165.sol\";\nimport \"./utils/Strings.sol\";\nimport \"./access/Ownable.sol\";\n\ncontract StonerCats is ERC721, Ownable, ReentrancyGuard {\n  using SafeMath for uint8;\n  using SafeMath for uint256;\n  using Strings for string;\n\n  // Max NFTs total. Due to burning this won't be the max tokenId\n  uint public constant MAX_TOKENS = 13420;\n  // Max at launch before ltd edition chars unlock\n  uint public constant MAX_TOKENS_INIT = 10420;\n  // Track current supply cap in range [MAX_TOKENS_INIT, MAX_TOKENS]\n  uint internal CURR_SUPPLY_CAP = MAX_TOKENS_INIT;\n\n  // Allow for starting/pausing sale\n  bool public hasSaleStarted = false;\n\n  // Effectively a UUID. Only increments to avoid collisions\n  // possible if we were reusing token IDs\n  uint internal nextTokenId = 0;\n\n  /*\n   * Set up the basics\n   *\n   * @dev It will NOT be ready to start sale immediately upon deploy\n   */\n  constructor(string memory baseURI) ERC721(\"Stoner Cats\",\"TOKEn\") {\n    setBaseURI(baseURI);\n  }\n\n  /*\n   * Get the tokens owned by _owner\n   */\n  function tokensOfOwner(address _owner) external view returns(uint256[] memory ) {\n    uint256 tokenCount = balanceOf(_owner);\n    if (tokenCount == 0) {\n      // Return an empty array\n      return new uint256[](0);\n    } else {\n      uint256[] memory result = new uint256[](tokenCount);\n      uint256 index;\n      for (index = 0; index < tokenCount; index++) {\n        result[index] = tokenOfOwnerByIndex(_owner, index);\n      }\n      return result;\n    }\n  }\n\n  /*\n   * Calculate price for the immediate next NFT minted\n   */\n  function calculatePrice() public view returns (uint256) {\n    require(hasSaleStarted == true, \"Sale hasn't started\");\n    require(totalSupply() < CURR_SUPPLY_CAP,\n            \"We're at max supply!\");\n\n    return 350000000000000000;  // 0.35 ETH\n  }\n\n  /*\n   * Main function for the NFT sale\n   *\n   * Prerequisites\n   *  - Not at max supply\n   *  - Sale has started\n   */\n  function mewnt(uint256 numTokens) external payable nonReentrant {\n    require(totalSupply() < CURR_SUPPLY_CAP,\n           \"We are at max supply. Burn some in a paper bag...?\");\n    require(numTokens > 0 && numTokens <= 20, \"You can drop minimum 1, maximum 20 NFTs\");\n    require(totalSupply().add(numTokens) <= CURR_SUPPLY_CAP, \"Exceeds CURR_SUPPLY_CAP\");\n    require(msg.value >= calculatePrice().mul(numTokens),\n           \"Ether value sent is below the price\");\n\n    for (uint i = 0; i < numTokens; i++) {\n      uint mintId = nextTokenId++;\n      _safeMint(msg.sender, mintId);\n      _setTokenURI(mintId, Strings.strConcat(Strings.uint2str(mintId), \"/index.json\"));\n    }\n  }\n\n  /*\n   * Only valid before the sales starts, for giveaways/team thank you's\n   */\n  function reserveGiveaway(uint256 numTokens) public onlyOwner {\n    uint currentSupply = totalSupply();\n    require(totalSupply().add(numTokens) <= 100, \"Exceeded giveaway supply\");\n    require(hasSaleStarted == false, \"Sale has already started\");\n    uint256 index;\n    // Reserved for people who helped this project and giveaways\n    for (index = 0; index < numTokens; index++) {\n      nextTokenId++;\n      _safeMint(owner(), currentSupply + index);\n\t\t\t_setTokenURI(currentSupply + index,\n      Strings.strConcat(Strings.uint2str(currentSupply + index), \"/index.json\"));\n    }\n  }\n\n  /**\n   * @dev See {IERC165-supportsInterface}.\n   */\n  function supportsInterface(bytes4 interfaceId) public view override(ERC165) returns (bool) {\n    return ERC165.supportsInterface(interfaceId);\n  }\n\n\n  // Admin functions\n\n  /*\n   * @dev Under the max of 13420, new characters from future episodes may\n   * get their own tokens. This makes room for those new ones,\n   * but still cannot go past the supply cap.\n   */\n  function addCharacter(uint numTokens) public onlyOwner {\n    require(CURR_SUPPLY_CAP + numTokens <= MAX_TOKENS,\n            \"Can't add new character NFTs. Would exceed MAX_TOKENS\");\n\n    CURR_SUPPLY_CAP = CURR_SUPPLY_CAP + numTokens;\n  }\n  \n  function getCurrentSupplyCap() public view returns(uint) {\n    return CURR_SUPPLY_CAP;\n  }\n\n  function setBaseURI(string memory baseURI) public onlyOwner {\n    _setBaseURI(baseURI);\n  }\n\n  function startSale() public onlyOwner {\n    hasSaleStarted = true;\n  }\n\n  function pauseSale() public onlyOwner {\n    hasSaleStarted = false;\n  }\n\n  function withdrawAll() public payable onlyOwner {\n    require(payable(msg.sender).send(address(this).balance));\n  }\n}\n",
  "sourcePath": "/Users/jon/Code/stoner-cats/stoner-cats/smart-contracts/contracts/StonerCats.sol",
  "compiler": {
    "name": "solc",
    "version": "0.7.6+commit.7338295f.Emscripten.clang"
  },
  "schemaVersion": "3.3.4",
  "updatedAt": "2021-07-26T09:34:13.282Z",
  "networkType": "ethereum",
  "devdoc": {
    "kind": "dev",
    "methods": {
      "approve(address,uint256)": {
        "details": "See {IERC721-approve}."
      },
      "balanceOf(address)": {
        "details": "See {IERC721-balanceOf}."
      },
      "baseURI()": {
        "details": "Returns the base URI set via {_setBaseURI}. This will be automatically added as a prefix in {tokenURI} to each token's URI, or to the token ID if no specific URI is set for that token ID."
      },
      "getApproved(uint256)": {
        "details": "See {IERC721-getApproved}."
      },
      "isApprovedForAll(address,address)": {
        "details": "See {IERC721-isApprovedForAll}."
      },
      "name()": {
        "details": "See {IERC721Metadata-name}."
      },
      "owner()": {
        "details": "Returns the address of the current owner."
      },
      "ownerOf(uint256)": {
        "details": "See {IERC721-ownerOf}."
      },
      "renounceOwnership()": {
        "details": "Leaves the contract without owner. It will not be possible to call `onlyOwner` functions anymore. Can only be called by the current owner. NOTE: Renouncing ownership will leave the contract without an owner, thereby removing any functionality that is only available to the owner."
      },
      "safeTransferFrom(address,address,uint256)": {
        "details": "See {IERC721-safeTransferFrom}."
      },
      "safeTransferFrom(address,address,uint256,bytes)": {
        "details": "See {IERC721-safeTransferFrom}."
      },
      "setApprovalForAll(address,bool)": {
        "details": "See {IERC721-setApprovalForAll}."
      },
      "supportsInterface(bytes4)": {
        "details": "See {IERC165-supportsInterface}."
      },
      "symbol()": {
        "details": "See {IERC721Metadata-symbol}."
      },
      "tokenByIndex(uint256)": {
        "details": "See {IERC721Enumerable-tokenByIndex}."
      },
      "tokenOfOwnerByIndex(address,uint256)": {
        "details": "See {IERC721Enumerable-tokenOfOwnerByIndex}."
      },
      "tokenURI(uint256)": {
        "details": "See {IERC721Metadata-tokenURI}."
      },
      "totalSupply()": {
        "details": "See {IERC721Enumerable-totalSupply}."
      },
      "transferFrom(address,address,uint256)": {
        "details": "See {IERC721-transferFrom}."
      },
      "transferOwnership(address)": {
        "details": "Transfers ownership of the contract to a new account (`newOwner`). Can only be called by the current owner."
      }
    },
    "version": 1
  },
  "userdoc": {
    "kind": "user",
    "methods": {},
    "version": 1
  }
}